:2000000000400020311E010001C9011001C9011001C9011001C9011001C9011001C901100E
:1C00200001C9011001C9011001C9011001C9011001C9011001C901103FC9011089
:20003C0080B54FF4FC720FF278011A480CF0D4FF012119484174002202210270C17601BD2F
:20005C002DE9F0410FF2502214493820136854689568D6681769D2F814C0D2F818E0D2F8F9
:20007C001C800B604C608D60CE600F61C1F814C0C1F818E0C1F81C8020322031401EE5D1DC
:20009C0050689368D46812680A6048608B60CC60BDE8F081480400215903002100C00021D1
:2000BC00410500217D0500212D06002170B51D46004C204787B2000010B5014800470000FD
:2000DC00D509000070B5614C6148254650358047022809D14034E1885E4A914204D1E97C5E
:2000FC00890601D4911DE18070BD70B557495A4A084650300378002B10D08379012B0DD181
:20011C00037C5B09DB0709D0097D544DC1746C7F20202043687790476C7770BDFF21C17420
:20013C00904770BD10B54E48484C804702280ED121464031CA88474B9A4208D1CA7C5209CE
:20015C00D20704D0227D920601D49A1DCA8010BD70B53E4843494030C07C4009C00707D032
:20017C003E4D41482C8B2043288388472C8370BD884770BD10B53B48344CAC388047214609
:20019C0053310A789309DB0705D04034A2730A7803231A430A7010BD2C4940310871182876
:2001BC0012D004DC0A280BD00B2804D10AE025280CD02A280CD02D4980004018C0687047DE
:2001DC002B4870472B4870472B4870472B4870472B48704770B504461C484E252D5CAE09AB
:2001FC00F60716D0067D3007000F052803D00120054202D00DE00220FAE7E80905D07006D1
:20021C0003D54868800F012803D05B085B0052085200062B03D01020022B11D011E0FB20F7
:20023C00024002232046FFF741FF002807DAC100611A2039497E1422114200D1002070BD93
:20025C00024303432046FFF731FF70BD4401002137CB000004140000EBC80000A800002142
:20027C00F5B4000053AD00002020000080DF00001D050021F9040021CD040021930400210F
:20029C006D04002110B5034CFFF716FF20680028FAD110BD0011044068610000F825F965B0
:2002BC00F9754500450045002600260057A3520052004C00401F401F401F3F000000000053
:2002DC00304000400140034007400F404F40CF40CF41CF43CF47CF4FCF3FCF2FCF1FCF0F6C
:2002FC00000000000000000000000F00080000003F00000040003F000000040068000E0093
:20031C00DC00060043001A00050000000000020000000000000000000400C00000000400B3
:20033C00C000000007000000000000000000000000000000000000003040004001400340A6
:20035C0007400F404F40CF40CF7FCF6FCF5FCF4FCF3FCF2FCF1FCF0F00000000000000009D
:20037C0050C00091007070C00091007082312100319110B10070018101B100A1823132910D
:20039C0010B101911110418141227740F106007051C0019130181039833108D01831416FD1
:2003BC003100319110B18314141683680070251050C00091F4C340C12014036F3110410497
:2003DC005082F0229840512622C082312100319110B163393110410482C08231210031919B
:2003FC0010B163393110A2C082312100319110B150101531051405920070676452C03110A6
:20041C0031066131C1026A6412C13110213971065131E1026A64007051C0019101CCE2C0CC
:20043C006A64676411C1C2C06A6450B054B0007140804022D6440022C94060B08180111EC9
:20045C00C944007054A064B0F0800022C9404012B09032B070C1DF6811C122C16A6470C1C0
:20047C00E46851C00191E2C0823160820200329110B130C2EE68538253395339B16460C347
:20049C00F4688012B09032B00070676401C122C16A6401C1C2C06A645382B164C012B09074
:2004BC0032B00070676472C281C06A6422C111C16A6402C011C16A6462C031C36A6462C3D2
:2004DC0011C16A6402C311C16A6453825339B164E2C36F6411221C4142C281C86A6452C24E
:2004FC0011C16A6472C2E1CE6A6402C281C86A6402C201C86A64B0C030690070676442C211
:20051C0001C86A6452C211C06A6472C2E1C06A6402C001C16A6462C001C36A6422C101C127
:20053C006A6462C301C16A6402C301C16A645382B16400708180111E5C4150B054B000712B
:20055C00408040225D4154A064B0F1800122514500700022514160B04E61000000000000AA
:20057C000000000000000000067305720B720E7250B00071818060B050A09280F0EFF1928C
:20059C0002936A6741228C458080F1C11004301601110114016CB561B661B761B861B9618D
:2005BC00BA61BB61BD61BF61C161C36126632D63F0C002043231412A121432160111211412
:2005DC00016CDA61C561E061C761CB61B561B561B561F461C561FA61C761CB61B561B56104
:2005FC00B561F461C561FA61C761CB61B561B561B561E761C561ED61C761CB61B561B56121
:20061C00B561CF61CF61CF61CF61CF61CF61C064CF61F964CF610665CF613265CF6174676A
:20063C00CF611166CF61C0644E65F964CF61066511663265CF618280E0DFF2926A67B0B044
:20065C00D661B1B00673057230B06C61D0CF6A6784C203C0C0C37C64207851788278E378B7
:20067C001579B6780062C0CF6A6784C203C0C0C37C64307861789278F3781579C678006250
:20069C00B0CF6A6784C203C0C0C37C6440787178A27803791579D678109221923292439281
:2006BC005492659256911FC0FF914039F00601101031101400927067CF61E3B054A0F08076
:2006DC0050221A4640800022BE461262E3A000C86091598150B0918041228E46A0CF6A6734
:2006FC0012828231823942398B641282F2062F101F312F141682D622334640C1346200C5AF
:20071C0020140D6F6D39DE10F4C34E0482C082312E006D39A2C082312D001A828A39FA0606
:20073C002082803180390BC00B18BC10AC18038239149B141082F0060110103110145181C2
:20075C0010140C14C622C94631D0C1266462021011C0013010C00118021882312100C126C2
:20077C00919103B013B063B053B041800122BE46B481C491D581B51C774E95186591F0803E
:20079C00102269428C623D9110B13E9110B1E08000228146E6228142E0B0951865910F926B
:2007BC005981F914F0805022114210228C464D6390CF6A6763B052A03082F2C0200402107E
:2007DC0011C0013010C00118021882312100C1269191919113B003B063B053B064B054B055
:2007FC00007141800122BE4663B064B0F08050221142B181C191D1819118619131B0A462D0
:20081C002967E0A059810582591480C0007163B0BA6A6962E3A0018262818231823D80EF61
:20083C00F19202936A6703A0007037824739873930828039F006021011C0013010C0011849
:20085C00021882312100C126819102B012B030824039F006021011C0013010C001180218E9
:20087C0082312100C126919103B013B063B053B0007153A062B052B041800122BE46A4816E
:20089C00C491D581B51CFE4E95186591F0801022F0428C62B481C491D4814518751C084FEB
:2008BC00F0801022F0428C623D9110B13E9110B1E08000221247E6221243E0B065910F92DC
:2008DC005981F914F0805022114210228C4630632967E0A0598105825914F0C0007162B038
:2008FC00226BF062A2808B64CF6112824239F2068B6050B00071CF6170CF6A674082418096
:20091C000122BE46A481C491D58195186591F18011228C46336B41800122BE46A481C491AB
:20093C00D581C51C1C4B95186591F08010223F438C6260CF6A67408241800122BE46B48169
:20095C00C491D58195186591F18011228C46506B41800122BE46B481C491D581C51CB44A55
:20097C0095186591F08010225C438C62E092D08200226B47C0B20070A080F022874330B033
:20099C0002C1623101C0A080001E8043F022814380F86031603981632010101A136F236E5A
:2009BC0011161216826B00702DE9F84FDFF82085DFF8201588F80000002008600921DFF881
:2009DC00180501700D2141804FF408718180DFF80C05DFF80C1501608A7EDFF80805027022
:2009FC00FF2ACB7E437008BFFF2B0D7F85704E7FC6708F7F0771C97F417115D1FF2D08BFE8
:200A1C00FF2E11D1FF2F08BFFF290DD1DFF8D8140A7802704A7842708A788270CA78C2701D
:200A3C000A79027149794171DFF8C01402780A70FF2542784A7082788A70C278CA70027916
:200A5C000A714079DFF8A82448710021DFF8A404057045708570C570057145711180DFF862
:200A7C009804DFF89814466BDFF894247078087031781170B078DFF88C14087071690879FF
:200A9C00DFF88414421E0A70F078DFF880140870B069DFF87C14086008B913F0B5FFF069ED
:200ABC00DFF87044206008B913F0AEFF2068DFF8687401688847216851F8042F38469047D1
:200ADC00DFF85804DFF858143862DFF858047862306A086008B913F097FF706ADFF8481474
:200AFC00086008B913F090FFDFF840B4DFF840649BF8040014F03EFB306008B900F049B9C2
:200B1C009BF80500DFF82C7414F034FB386008B930683BE19BF80600DFF81C4414F02AFB71
:200B3C00206020B9306814F02DFB38682EE19BF80700DFF8089414F01DFBC9F8000038B9F2
:200B5C00306814F01FFB386814F01CFB20681DE1DFF8AC130A789BF80000DFF8E4A3921CCB
:200B7C00504380B214F006FBCAF8080058B9306814F008FB386814F005FB206814F002FBE8
:200B9C00D9F8000002E1DFF878030078002800F00581BBF80210DFF8ACB3484380B214F061
:200BBC00E9FACBF8040078B9306814F0EBFA386814F0E8FA206814F0E5FAD9F8000014F0F7
:200BDC00E1FADAF80800E1E0CD48007814F0D2FADD49086098B9306814F0D4FA386814F039
:200BFC00D1FA206814F0CEFAD9F8000014F0CAFADAF8080014F0C6FADBF80400C6E0C048FE
:200C1C0000781C21484314F0B5FAD04A1060B0B9306814F0B7FA386814F0B4FA206814F0A7
:200C3C00B1FAD9F8000014F0ADFADAF8080014F0A9FADBF8040014F0A5FAC348A5E0B048EE
:200C5C000078400114F096FAC1490860D8B9306814F098FA386814F095FA206814F092FAAF
:200C7C00D9F8000014F08EFADAF8080014F08AFADBF8040014F086FAB348006814F082FA5B
:200C9C00B249086882E09E480078000114F072FAB0490860F0B9306814F074FA386814F0E4
:200CBC0071FA206814F06EFAD9F8000014F06AFADAF8080014F066FADBF8040014F062FA0B
:200CDC00A148006814F05EFAA049086814F05AFA9F485AE08A480078000114F04BFA9E49FE
:200CFC00086018BB306814F04DFA386814F04AFA206814F047FAD9F8000014F043FADAF821
:200D1C00080014F03FFADBF8040014F03BFA8E48006814F037FA8D49086814F033FA8C48A4
:200D3C00006814F02FFA8B4908682FE0744800783021484314F01EFA884A106070BB30687E
:200D5C0014F020FA386814F01DFA206814F01AFAD9F8000014F016FADAF8080014F012FA2F
:200D7C00DBF8040014F00EFA7748006814F00AFA7649086814F006FA7548006814F002FAED
:200D9C007449086814F0FEF97348006814F0FAF9002013F039FE4FF4804192E0316801206B
:200DBC0008713068057331684D73306885733168CD7330680574002031684D743268D07265
:200DDC00A0223168487103213068C280017207203168487200203268907228213068418298
:200DFC000121C176002031684877326882F85E00012031680877326882F85D0039680871D0
:200E1C003868057339684D73386885733968CD7338680574002039684D743A68D0723968A4
:200E3C0048713A6890724FF4207039680022C88008818A7401213A68D17421680D73226838
:200E5C00557321688D732268D57321680D740021226855742368D9720121226811710021B0
:200E7C00236859712168C8800881002088722168887405202268D0743948016888472A49E9
:200E9C000A6805461068804727490A6852F8043F0020984718481D4BC16818780A8831493F
:200EBC0002430A80284630490A6890470C212F4800F05EF80F4800F05FF800F061F84FF403
:200EDC00005198F80000BDE8F44F0AF08BBE00BF6E4F0020044F0020604E0020084F002096
:200EFC00B63F00502C4E0020E81200503C4E00200C4F0020344E0020786C01006D4F002025
:200F1C007B4F00206B4F0020724F00206C4F0020F04E0020F44E00207C4B002091510100AB
:200F3C00F84E0020A1510100FC4E00207C120020104F0020F01D0020184F0020F41D0020C0
:200F5C00B81D0020684E0020004F0020E81D0020EC1D0020884E00208C4E0020904E0020FF
:200F7C00840D0020544F0020880D0020F84D0020DFF800F0E5710110DFF800F01D6E011036
:200F9C00DFF800F04D7101102DE9F04106465FEA010808BFDFF8408010480078C8B1104CB7
:200FBC0007460025B54204D02068C0698047064209D02068406841460246204690470028DB
:200FDC0018BF201C06D17F1E04F10C0405F10105E8D10020BDE8F0811B6A0100226C010069
:040FFC00E06B0100A5
:20100000B41200001810000015AB0110FDB301106DC00110FDAE011099B5011000000000F7
:08102000000000002D0000009B
:20102800B01200003C100000B1C00110A9BF011067C0011069B80110000000000000000035
:041048003000000074
:20104C00B012000060100000BDC00110CDB30110D9BD01106DB3011000000000000000005B
:04106C00310000004F
:2010700000000000A412002004000000000000000000000020000000E8C901103000000074
:2010900028100000AC1200200400000000000000000000000C000000D8CA0110180000004F
:2010B0004C100000B412002004000000000000000000000024000000F0CA011018000000D3
:2010D00000000000BC1200200400000000000000000000001000000018CA01102C000000DF
:2010F00000100000CC120020040000000000000000000000200000006CCA01102400000043
:20111000FFFFFFFFD41200200400000000000000000000002800000090CA01102400000002
:20113000FFFFFFFFDC1200200400000000000000000000001400000008CB01101800000081
:20115000FFFFFFFFE412002004000000000000000000000058000000B4C90110340000004F
:20117000FFFFFFFFEC1200200400000000000000000000001000000020CB0110180000001D
:20119000FFFFFFFFF41200200400000000000000000000001C000000B4CA0110240000004A
:2011B000FFFFFFFFFC1200200400000000000000000000003800000044CA01102800000072
:2011D000FFFFFFFF041300200400000000000000000000005400000078C901103C000000E6
:0811F00001000000646C010025
:0411F80001000000F2
:0411FC0000000E00E1
:0412000000000F00DB
:0412040032000000B4
:0412080001000000E1
:04120C008C11002021
:0412100000020000D8
:0412140000000000D6
:0412180001C90110F7
:04121C0000000000CE
:0412200000000000CA
:0412240008000000BE
:0412280000002200A0
:04122C003C10002052
:0412300000000000BA
:0412340000000000B6
:0412380008000000AA
:04123C00301100204D
:0412400000000000AA
:0412440000000000A6
:04124800080000009A
:04124C00000000009E
:04125000000000009A
:041254000000000096
:041258000000000092
:04125C00010000008D
:04126000A4100020B6
:041264000600000080
:041268000100000081
:04126C00240F00202B
:04127000000000007A
:041274000000000076
:041278000002000070
:04127C00000000006E
:02128000290043
:02128200010069
:02128400250043
:02128600300036
:02128800310033
:02128A002D0035
:02128C0001005F
:01128E00015E
:0812900003000000046C0100E2
:0812980000000000000000004E
:0412A0000000010049
:0412A4000000030043
:0412A80013C401105A
:0412AC003F4F0100AF
:0412B000B812000070
:0412B400B81200006C
:0412B8000000000032
:0412BC0048120020B4
:0412C000CF5001000A
:0412C4002000000006
:0412C800886B01002E
:0412CC00CC690100E8
:0412D00029C101101F
:0412D4001B120100E8
:0412D800C716010034
:0412DC00A1C7011095
:0412E000A3C701108F
:0412E4000000000006
:0412E800AD6B0100E9
:0412EC00386801005D
:0412F0005068010041
:0412F400206801006D
:0212F8000200F2
:0212FA000900E9
:0212FC000100EF
:0212FE000000EE
:0113000001EB
:041304005D50010037
:04130800D5300100DB
:04130C00094401008F
:04131000853401001F
:041314004F35010050
:04131800D51C0100DF
:04131C001DEF0000C1
:0413200099520100DD
:041324004907010074
:0413280015C70110D4
:04132C0025C70110C0
:201330002DE9F04F0D4685B0804615F8010BDFF87C27DFF87CB78DF8000008F1FD01801E43
:20135000152808F59E7408F20D1A08F1E70908F5B07608F5C67700F29583DFE810F00701F1
:20137000930316004400480073039303BF0093037B00D1007F0086000F01DC011D02FD006A
:201390007D03E002E0022402960208F1A00608222946304614F0E4FC05460821304614F0BB
:2013B000DBFC08F1980704222946384614F0D8FC0421384614F0D0FC00204142414408EB35
:2013D000000291F89F1082F8BF10401C0828F4DB08F1C702314608F1D70014F0B9FC01203C
:2013F00089F800005FE3012089F813005BE399F80D1099F81600012900F010000DD130B1E9
:20141000002060712168A07949080EF0A9FC98F80600002114F098FC0FE040B12268DFF8A5
:20143000940608F5A1735208414613F0D7FF98F806000122002114F083FC012088F86600D3
:20145000404610F0A6FE08F166010120887189F80F0028E3012089F8100024E3287889F863
:201470000E00012089F814001DE399F8120001281CD199F80030012B4AD099F81600030727
:2014900004D40E218AF80C100721F8E1002002F109062B5C365C33432B54561C365C3340EF
:2014B0000B54401C0828F2DB0921E8E199F81600030701D40E217BE1002002F109062B5CB7
:2014D000365C33432B54561C365C33400B54401C0828F2DB40460EF00BFEDAE2002002F1EA
:2014F00009042B5C245C23432B54541C245C23400B54401C0828F2DB022089F81500D2E26C
:2015100099F81200012804BF99F80010012906D13D208AF80B0001208AF80A00C3E29AF8BC
:2015300000000128FAD015F8011B8AF803100222294608F5897014F013FC0146022208F5E6
:201550008A7014F00DFC01208AF800009AF802000028E3D10C2192E199F81600C10601D47E
:20157000122125E140460FF0E1FF92E228788AF80B00F02100208AF80A0007E199F81600D0
:20159000810707D410F0110F08BF0F2000F07C821A22F1E008F166010A7C012A04BF497C2E
:2015B0000F2910D008F16601497D19B108F166035A7C22B108F166031A7F012A05D14007C5
:2015D00058BF0F200FD52322D6E021B108F16601497C012904D008F186018A7A012A06D15B
:2015F000400758BF0F2040F14F822A22C4E02878697800EB0120A081E978A87800EB012021
:20161000E0816979287900EB01202082E979A87900EB01206082287A2075A97A687A00EB90
:201630000120E082297BE87A00EB01202083A97B687B00EB01206083297CE87B00EB012058
:20165000A083A97C687C00EB0120E083297DE87C00EB01202084A97D687D00EB012060842A
:2016700008F5AA700490E08A0390207D0290B8F808000190608A0090238AE289A1894046F8
:201690000DF0D0FB28B199F81600410773D40F218EE0E08908F186018880208AC880608AF8
:2016B0000881022088F886000020488008F16601B8F83400C01DC88308F186008188B8F8DD
:2016D0003200814201BF08F18600C188B8F83400814206D108F186000189B8F8360081424D
:2016F00017D008F16601487D28B108F166020F219176FE21C3E0FC2140460EF0F9F9608A1E
:201710000090238AE289A18998F8060014F014FBC9E10021B3E0AE78E8782F79AC7906EB9C
:201730000026687907EB0027E87905F10B0104EB00240491BBB2687AA97A00EB012080B2BE
:201750000390B2B2287A0290B8F808000190A0B200906978287800EB012081B240460DF0E0
:2017700061FB58B199F81600410701D40F211FE040460FF047F91E220F2135E008F1860038
:2017900008F186018680CF8004810021404605B0BDE8F04F11F0F2BA2878307068787070F2
:2017B000012060727FE199F81700C10703D416218AF80C106AE108F16600417C16291ABF2B
:2017D000BA79012A23220ED0002918BF012909D00F291CBF017F01291EBF08F18600817A61
:2017F000012907D12A221621404605B0BDE8F04F11F0E0BA6978287801F007010840287040
:20181000797B01401CBF481E0142F9720CD0490704D5B87B10B10421F97205E0F97A022091
:2018300001420CD14008FBD1F87AB97A884204BF0020F872F87A20B9002139811EE0F8721A
:20185000F2E7B8F83400C01D3881F87A042803D140460FF0E2FEB0830123F87AB97B3871A8
:20187000B28B10F043FB0146308B884205D3B28BB97B3879012310F039FB78801821404608
:2018900005B0BDE8F04F0EF033B96978287801F0070108402870F97A01401CBF481E014223
:2018B000F9720CD0490704D5B87B10B10421F97205E0F97A022001420DD14008FBD1F87A03
:2018D000B97A884204BF0020F872F87A28B90021B87A39810DE0F872F1E7B8F83400C01D5E
:2018F0003881F87A042803D140460FF096FEB083F87A3871B28BB97B3879012310F0F6FA10
:201910000146308B884205D3B28BB97B3879012310F0ECFA7880387B40F02000B0E02978BB
:20193000687801EB00217182A878E97800EB0120F0826979287900EB01203082E979A879F4
:2019500000EB0120B082B18AF089884288BF0846B97A042905D140F691229042B8BF4FF47B
:201970002960F28BF0839042B87A14BF01250025042803D140460FF050FE04E0B089F18A51
:20199000884288BF0846B28BB083904214BF012100210D433089718A328B884288BF084660
:2019B000904214BF012100210D433083B28BB97B3879012310F09AFA0146308B884205D3AE
:2019D000B28BB97B3879012310F090FA78807189308A728B814288BF01467183914298F8D6
:2019F000063014BF0120002005438A4232490A6802EB4311728B8041121DC00F0A7610B14E
:201A1000404611F04DFC9DF80000142810D145B1F08B0090738BB28B318B98F8060014F0A2
:201A300087F9404605B0BDE8F04F15210CF0ACBB1DB1387840F008003870397841F02001FD
:201A5000397030E028780F2809D0122804D0142808D016280ED026E00020207123E00120F4
:201A7000207220E0387840F00200387040F01000387018E0387B40F00200387340F010008A
:201A9000387310E09DF800008AF80C0040460FF045F940B99BF8000005B0BDE8F04F4FF44D
:201AB00080410AF0A5B805B0BDE8F08F741D00206E4F00204DED0000EC1D00202DE9F047E7
:201AD000040082B028D1002012F0A4FF24E020460EF091FCDAE1297C012940F0D481C078C6
:201AF000002800F0D781B8F8020098F800104000A8F802004900B8F8040088F80010400065
:201B1000A8F804000121B8F808000001A8F80800297720460EF076FF04F16605687D0028A8
:201B300000F0BE81697CDFF8FC04002904F1860804F1EC0604F5897904F5A27A04F5C677D1
:201B5000C9D001293FD0022931D0032946D0062900F08A80072900F08C81082900F0B3808B
:201B7000092900F0BF800A2900F091800B2900F09B800C2900F0C1800F2900F0DC8011295D
:201B900000F00381122900F0D080142900F04E81162900F00881182900F02E81F02900F0A9
:201BB0008181FC295FD0FE2900F086818BE7297C01298CD1C078002800F0EE8020460EF0E1
:201BD00021FF162173E1297C012940F08981C078002818BF88F80A109BD185E1297C0129CF
:201BF00040F08681807850B10021A9719AF80200012804D18AF8021020460DF079FFB07B3E
:201C1000012809D100213160716088F80E000621204611F0B3F87FE7F07B012818D120461E
:201C30000EF0F0FE002188F80E1001202870204610F0AFFA0120A87100207073717AA079E0
:201C500006291ABF00221A21002214F079F863E799F80500012844D0298B481E288380B264
:201C7000002800F071811AE1287C012840F04A81B17A012917D120460EF0C4FE0020307262
:201C90003073F072B073B072F073707344E7287C012840F04681F17A012902BF002088F8BF
:201CB0000E000B21B4D036E1297C012940F042818078002800F042810321A9E70022222191
:201CD00014F03EF8ABE1287C012840F04681307C022804F1FD0240F04981A179002014F068
:201CF00023F816E7297C012940F04B818078002800F04B81618CE1830BE7287C012804F20F
:201D10000D1140F045810A78012A40F048814878012809D1B9F8022000920020CA78B9F8BE
:201D30000030A17913F0FCFFF3E6297C012940F0478180782EE0287C012840F045819AF850
:201D5000011001290BD19AF81C000F281CBF002012F060FE00208AF80100002158E79AF887
:201D70000200012808D100218AF8021023220F21204611F01FF8CFE69AF80000012840F007
:201D9000278100218AF8001042E7297C012940F02281C078002823D1298B481E288380B2C2
:201DB00000288FD07BE0287C012840F01881397B880648BF1821E7D4C80712D59AF81C00FA
:201DD00016281CBF002012F025FE387B00F0FE0038730023A1799AF81D0000220AF0D6FE6D
:201DF00097E6880740F1FF8001F0FD0139730023A17900221A20F1E7297C012940F0F98093
:201E1000C078002800F0FA80397BF87A40B98A060BD501F0DF013973BA7AA1791346DDE771
:201E300001F0DF0139730120B87172E6287C012840F0EB803878810604F5B37612D500F0DB
:201E5000DF00010738700AD500F0F7003870308B0090B38AF28A718AA07913F069FF0020D2
:201E7000307056E6810740F1D48000F0FD003870F5E720460EF052FF0128F2D00FE0002049
:201E900012F0C8FD0BE020460BF09AFF2874E88A288304E06089E98B884200F0B48000207E
:201EB000BDE8F687407A0028FAD099F80610204612F0F8FA0120F3E7A87E0F28DFD1FC211E
:201ED000204610F05BFFBAF80A000090BAF80830BAF80620BAF80410A07913F02DFFDEE751
:201EF00020460DF0D5F9D1E76089B8F80C10D3E720460BF06FFB2874E88A28830020B073B3
:201F1000F073CDE720460EF0DFFF2874E88A28830020B072C4E7288B401E288380B298B17B
:201F3000BDE720460FF048F92874E88A28830020F072B5E720460DF00FFEA7E7288B401E61
:201F5000288380B20028AAD1317AA07901297FF4B5AE222113F0F8FE61E020460DF082FBD0
:201F70002874E88A28830120307498E7288B401E288380B2002892D1A179222013F0D4FEAA
:201F90004DE020460EF0B4F880E7288B401E05E70120887020460CF00BFF28747FE7288B56
:201FB000401E288380B20028F8D1B9F8020000902220CA78B9F80030A17913F0B1FE2EE063
:201FD00020460FF08BFA61E720460AF02FFE5DE7288B401EE2E620460EF0AEF956E7204667
:201FF0000AF096FA52E7288B401E288380B2B0B155E7182120460AF08BFA47E721893889CC
:20201000491C8842F4D1282151E720460CF0BCF83CE7288B401E288380B20028E8D12221F0
:2020300045E700BF5C4D00202DE9F041C44C014620790FF208380A09ADF1300D80F0828103
:202050004909C0F0F48194F90220D449002874D10D462878B2F1FF3F37D1E078012800F073
:20207000E681E069012700260221E770D6A36670324611F022FFE06943460321324611F080
:202090001CFFE06904214346324611F016FFE06905214346324611F010FFE0690621434617
:2020B000324611F00AFF287811F0F8FC8DF8180006AA8DF81A70D3498DF81B6003208DF8D9
:2020D0001900102005F03CFEB1E1012104EBC205217178356F7811F0E1FC8DF82600002639
:2020F0008DF827608DF82860AD1C8DF8297029680DF12A000160AB888380CE490DF1260243
:20211000102005F01DFEE0690221CDA3324611F0D4FEE76928460FF041F90346032132466C
:20213000384611F0CAFEE0690421324613F0BAF866704FF0FF30A07079E1022840F07781AD
:202150000846A289617A678A00781546002970D0B94B491E33D0491E00F0DB80491E03D094
:20217000491E00F0AF8062E119461020012305F0E7FD002800F05B81A07A02281ABF401C8D
:20219000C0B20020A07204EB8000806C0090E06902210022ADA311F090FEE06903210022A4
:2021B00013F080F8A07A2018807D009000230190A2490293A289102005F0C2FD37E1104604
:2021D00012F006FD78BB194610202A46012305F0B7FD002800F02B81284612F0F9FC071C9F
:2021F00015D1E18D4FF6FF7004F12C07884240F01E81242013F094F90028786000F01781AA
:20221000C649002213460FF061FC7D8002E0786813F0A0F94FF47A70388078684FF47A717A
:2022300010F020FD03E1284610F0CCFA04218CA3C6E0002F00F0FB80207A012800F0F7809B
:20225000E679207846B3104612210023012213F063FD0028049000F0EA80618A0127ADF87E
:202270000C10A179ADF80E7000260170A5898DF8146020788DF8156011F010FCA849009017
:2022900003AB2A46102005F05BFDC5B29DB103A8122113F03DFD0BE0ADF80C7011F0FEFBAD
:2022B000A04900902A4603AB102005F049FDC5B2002D40F0BC8001202072E07980F001007F
:2022D000E071B4E00326267111F0E8FB02462B46132095490090102005F032FDE06902214B
:2022F000002263A311F0E9FDE06943460022314611F0E3FDE06904210022434611F0DDFD7F
:20231000E06905210022434611F0D7FD002060728DE04FF4C8704FF44877ADF81C500026AB
:20233000ADF81E004FF41674ADF820707F49ADF8226007AAADF82440C3E6C04600C046C0AA
:2023500008020020002847D1E07801286FD094F902006278401C41B2E0698A4220DDA17068
:20237000491C002246A30091022111F0A6FD94F90200E56904EBC0007A300FF00FF8034600
:2023900003210022284611F098FDE069052100223EA311F092FDE069024642E07006002098
:2023B0004FF0FF31A17043460022022111F085FDE06903210022434611F07FFD05213AA3A4
:2023D000E06902462FE0C046446973636F766572696E672E2E2E00C0022828D1607A042857
:2023F0001ABF401CC0B20020E269607290B1401E0ED0401E0AD0401E06D0401E11D12DA3F0
:2024100009E0C04689D300002EA304E033A302E038A300E03CA310460521002211F04DFD71
:20243000E26906211CA31046002211F046FD0CB0BDE8F08131A40000B17F011001080100AD
:20245000436F6E6E656374696E6700C050485920707265666572656E63653A20257300C0C2
:20247000525353492043616E63656C6C656400C0446973636F6E6E656374696E6700C04662
:2024900044657669636520256400C046436F6E6E656374202D3E00C03C2D204E65787420D0
:2024B0004F7074696F6E00C0446973636F766572202D3E00446973636F6E6E656374202DB2
:2024D0003E00C0465365742050485920507265666572656E6365202D3E00C046436F6E6E2D
:2024F000656374696F6E20557064617465202D3E00C046C0546F67676C6520526561642058
:2025100052535349202D3E004741545420526561642F5772697465202D3E00C0A94F010095
:202530006D55010071550100E51401107D1501102DE9F04FCE4C04F120012046ADF1240D9A
:202550000EF08CFE04F13C050021284613F0DCFBCA494FF47A72002304F1540065620FF0D0
:20257000B5FAC74D05F1180005F10C010AF0D4FDC449A86012F0C0FEC34EA8684FF4E02172
:202590003246521E10F03EFEA8684FF4E021324610F038FEBD4EA8684FF0C0513246521EB2
:2025B00010F030FEA8684FF0C051324610F02AFECD49C822002305F124000FF087FACB480D
:2025D000002168604FF08040FEF7E4FC00274FF008084FF6FF73DFF81C93E061C44EE385C0
:2025F00002222763494610204FF47A6386F8018005F0A6FB102003224FF47A63494605F0B0
:202610009FFBBD48BD4915233A460090102005F097FB01258DF81D508DF8205044F6C740B8
:2026300005908DF81E70DFF8D8928DF81F704FF48162042305AD10204946009505F080FBCA
:202650000DF11D004FF48062012300904946102005F076FB0DF11E0040F20242012300900B
:202670004946102005F06CFB0DF11F0040F20342012300904946102005F062FB08A8009096
:20269000494640F206420123102005F059FBDFF800931020494605F053FB207811F0FEF988
:2026B000BC490246102005F04BFBBB4910204FF0FF3205F045FBB94910204FF0FF3205F0E2
:2026D0003FFB1020494605F03BFBB5491020042205F036FB04F12800B060307811F0DEF99F
:2026F0000246707806F1160543460090AD490195102006F1260502950C36039605F020FB0F
:20271000A94904F13402102005F01AFB207811F0C5F9A6490246102005F012FB207811F0F9
:20273000BDF9A3490246102005F00AFBE069394674A30A4611F0C1FBBB46DFF88C92206A09
:20275000A04A59464FF0FF3313F0DAFA061CF6D05846049007A904AA06A810F0A5FE78B99E
:20277000BDF81800102807D120789DF81C10884202D1049800F074FB049808B112F099FE8D
:20279000F00FC0F094808CE0606A054613F0B4FA854208BF5F4602D0876810F0E5FC381C0B
:2027B0007FD03888401E73D0401E63D0801E49D0001F23D0083871D17868B4F80C800578E8
:2027D00059465A4609F042FCB0FBF9F101FB09F1401A824635B10090E06904215A464CA353
:2027F00011F06BFB7649CDF800A0102042465B4605F0A6FA786810F0B7FC4FE07A68BD7877
:20281000E1691078ADB1012D0CD0022D07D0032D16D1002808BF42A30CD046A307E078B9A0
:202830004AA307E0002808BF4CA303D04FA3009000E053A308465A46022111F03EFB7A687E
:202850001046D8E77D686A884FF6FF70904225D05A491020012305F073FAF8B1686829887E
:2028700010F000FA6A885449102005F069FA15E008020020B878FFF7D7FB0FE021510100BE
:20289000700F0020CD2B01000E0005800E000010786800F0E5FA786812F00BFE384610F0C7
:2028B00063FC606A13F024FA00283FF46DAF7008FFF445AF01206071A78AA4F812B0A58939
:2028D000A4F810B0381FADF81A002078A4F80EB011F0E4F8374900900DF11A032A461020DC
:2028F00005F02EFA2BE7C0466D4F01003D54010070060020BD8401101A6B010051F1000094
:20291000A54F0000424C452043656E7472616C0050617373636F64653A20256400C046C01C
:20293000426F6E642073617665207375636365737300C046426F6E642073617665206661DD
:20295000696C65643A20256400C046C0426F6E64696E6720737563636573730050616972BA
:20297000696E6720737563636573730050616972696E67206661696C3A20256400C046C0C1
:2029900050616972696E672073746172746564007DDA0000695301000D4301001946010081
:2029B000D14C0100251101002D4801005188011031810110152F010025AB0010B17F011029
:2029D00081350100010000C040420F002DE9F04FC54C20780E46F10BADF1340DC9036DD1A7
:2029F000B0085DD2606AA16A720807D2F00828BF86F0040680F02B82002029E2858861B9EA
:202A100004F11800C74A00904FF6FF710223012013F06AF90146A16219B304A8009000271E
:202A3000019702230293FF220392228B284608AB03F0BCFA58B99DF821009DF82020A16A60
:202A500012EB002204D0498928460FF081FBA16A228B08463B464FF6FF7113F041F90146F8
:202A7000A162206A00291CBF012186F001061FD168B14368616A5BB1888800220121984758
:202A9000206A676A4368B888032100229847616A888812F0B3FA11F0A1FF86F00106D6E15C
:202AB0000020014604F04EFB30B1012186F00206207809F09DF8CAE10221F7E70AF068FEAF
:202AD0000028099000F0C18105462878B03800F05081401E00F044811F3840F0B181A87873
:202AF000801F00F03981C01E00F01E81401E57D0401E33D0401E00F02A81801E40F0A28140
:202B1000687806281FD12846808813F0E5F8071C19D0A07B401E12D0401E0ED0401E12D16D
:202B3000002140F209400A4602F034FA284681883878052213F0CCF805E0A988F8E7A8883F
:202B500079790FF07DFA206A002800F07B814368002B00F077816A780221DFE012F0F8FAE9
:202B7000002800F06F81276A0FB1386878B9286900280CBFE0690120698913F0A5F8002873
:202B900000F060816889012113F09AF85AE1286900903C6869892A7B6B7BE81CA04751E112
:202BB00068784FF0000A002840F0A280A8794008C0F09E80606A002840F09A800DF11200DF
:202BD00051460E2212F0D2FCA88813F085F85FEA000800F03781686900285DD05146814621
:202BF00006220A9109F1110011F0A8FF20B34846062211F0A3FFD8B999F8100009F1110BDB
:202C100057460B907F1C5846FFB28BF8007011F0D1F80A280BDA914B0B9A0101A1EB40015E
:202C300058188079824202D1002FEBD100E01FB901200A9057466F610A9850B909F1110102
:202C50000DF11200062212F083F899F810008DF818000A9801281FD06F69EFB1387C07F193
:202C7000110106228DF818000DF1120012F070F808F10C0008F10601062212F069F808F16A
:202C9000060007F11101062212F062F8387C40F0020088F805000AE098F8050008F10601A6
:202CB00006228DF818000DF1120012F051F8A8799DF81F10C0F3800008438DF81F00A879BC
:202CD000000905D39DF81F0040F008008DF81F000DF11200294604F035FA38B92078022125
:202CF00008F086FFB1E0C046E80A00204FF0150A12F05CFB206A002800F0A4804368002B4B
:202D100000F0A080A8886A7801219847BAF1000F00F09880206A032152464368A8889847BE
:202D300090E0C046226D0100E878291D002209F095FD0A2880F28680410001EB800005F1DD
:202D50000C0225300421C0B207F064FC7AE0A888297B0BF08DFE75E0A8880EF061F871E031
:202D7000287900286CD16888E9882A890FF0F0F966E02879401E26D0083802D0743853D025
:202D900059E068781A284BD06888804612F008FB022850D12889012201280AD168890328B3
:202DB00007D1E868807820B9404611460EF0D9FD0246206A00283ED04368002B3BD04046EA
:202DD0000521984737E02B7A688805F10807082B814625D112F0E4FA022821D1688900212F
:202DF0000EF0BFFD8046607D90B1484612F074FF70B119490B784BB94179831D012201F0AA
:202E100001010846194611F072FE01E001202075206A28B143681BB1788805214246984784
:202E3000688812F0EBF806E06A8812F0B9FA0146104610F0EBFF297905F1080012F068FF90
:202E5000012002D0284611F02FFC86F40046B0B20DB0BDE8F08FC0465A4F0020DA0B0020FE
:202E70002DE9F8430546C04C28782179913800F05B811F3800F00681203840F08F81A87845
:202E9000E66967780FF20038002800F0E880401E43D0001F0FF2083909D0401E00F0AF8013
:202EB000401E00F0A580801F50D0BDE8F883687808BB01230227628A237268892771A08195
:202ED00022B904F1540012F043FBE669304639460022B6A310F0F1FFE469281D0EF05EFAE7
:202EF000034603210022204610F0E7FF0820FFF79BF8BDE8F8834FF6FE70A0810027277183
:202F10000221ADA33A463046677110F0D6FF687803214B463A4600909CE00025E57030467A
:202F30000221A9A32A46009710F0C7FF607828B1E06903212A46A9A310F0BFFF4FF0FF303F
:202F500005212A464346A070E66956E02B69287B1A18521E00E0C3189A4240F21F8113F860
:202F7000010B0028F8D01978022918BF0329F2D1401E5B1CC0B2022836DB41109A4233D908
:202F90001E78F02E02D15E78FF2E06D0801E491E03F10203C0B2F1D126E095F80490082F31
:202FB00005F1050880F2FA8077B104F17A063D4640463146062211F0E9F9002800F0EE8064
:202FD0006D1E06F10806F3D14246136804EBC7007830811C0B6092888A807F1C80F801905C
:202FF000FEB26670BDE8F883012808BF5B1CB3E7E87802217DA30090002230462BE000261E
:2030100026714FF6FE70A08166716682042726724FF0FF336772A888A3700FF0D3FBE06910
:20303000022177A3324610F048FFA8790090E06903214B46324610F040FFE06939463246DE
:2030500012F030F9E0690621324612F02BF9324605214346E06910F030FFBDE8F883688977
:20307000A082E81C0EF09AF9034601210022304610F023FFE0690221002265A310F01DFFB2
:203090000022E5E7022948D16978E06916293DD029790B2929D0012902D1297A0A2924D0E2
:2030B0002979132915D0012902D12A7A122A10D07E290BD07F2906D0607900282DD0284614
:2030D00006F098FD29E0298954A321E0297A57A31EE0012907D0A17958A3491CC9B2A171FF
:2030F000491EC9B20AE059A307E02979012903D0E968097859A301E05CA3297B009100226D
:20311000042110F0DAFE0020207206E029795BA300910022042110F0D0FE297905F1080024
:2031300012F0F6FDBDE8F88368780E381ED0801E30D02E3832D1A8780C282FD1E978E06951
:2031500071B90321002252A310F0B7FEE879012814BF54A055A00421002256A30090F3E656
:20317000032158A3064647E708020020A88841F20541814212D1A86890F90300042100224A
:2031900055A34042C7E6C046446973636F766572202D3E000820002105F0F0FFBDE8F883DB
:2031B000526561736F6E3A20256400C0436F6E6E656374656400C046436F6E6E6563742071
:2031D0004661696C656400C04465766963657320466F756E6420256400C046C03C2D2054AF
:2031F0006F2053656C65637400C046C0506172616D205570646174653A20256400C046C0ED
:20321000446973636F6E6E656374656400C046C0496E697469616C697A6564004D54552079
:2032300053697A653A20256400C046C046432056696F6C617465643A2025640057726974D0
:20325000652073656E743A20256400C05772697465204572726F7220256400C05265616462
:20327000207273703A20256400C046C052656164204572726F7220256400C04641545420C2
:203290005273702064726F7070656420256400C05048592055706461746520436F6D706CE3
:2032B0006574650032204D62707300C031204D62707300C043757272656E74205048593A4B
:2032D00020257300504859204368616E6765206661696C75726500C052535349202D6442D3
:2032F0003A202564000070472DE9F84FDC4DDFF874832968DC4F887CDFF8709311F060FED7
:203310002A6800210446517104F12E0628680EF00FFE012060711C2598F80100401C88F87A
:20333000010080200BF0B6F920607969C160D048018949007180C079B18840003070490038
:203350003089B180000130813146204611F02CF90520A081204611F0FBFA386812F0ACFCD2
:20337000062210F8081FC1F3801184F82E11811C04F5947011F0ECFC3968BE4F0A68002023
:20339000107141F62202A1793868694342520022A17969430144001D4A80A17969434250DB
:2033B00099F80200410609D5B349088841F20A4290420CBFB148B248C4F89C012046D4F81F
:2033D0009C118847A27939686A4311448873A1793868694308440021C173A179386869433B
:2033F0000844807BF07294F8960108B911F012FBA1793868DFF88CA26943084494F8961138
:203410004A1E02740022A17938686943084400214174A17938686943014400F114034A8295
:20343000A179DAF8002002EB411269435A50A1796943084494498161A07908F0B7FEA27928
:20345000DAF8001052018850A2795201885820B90721204611F026F8FEE011441F2008768B
:203470000022DAF80000A179DFF820B200EB41104276DBF80000A17900EB011012F018FC92
:20349000A179DBF80020DAF80000DFF804B202EB0112031D49015A50021DA3795B0104F110
:2034B0006801D2580A60A279520183588B60DBF81410097894F806E0CA074CBF10220022B1
:2034D0008B074CBF202300235FEA417C4CBF4FF0400C4FF0000C09074CBF802100211343BF
:2034F0004CEA030300EB4E100B4343F00F030372DAF80010A07901EB40110B224A72DAF83C
:203510000000A17900EB411004228272DAF80010A07901EB40105F490A78012A02D10123A8
:20353000C37203E0DBF828100A78C272DAF80000A279636A00F10C0152018B50A17900EBB7
:203550004110A16A0174DAF80000A17900EB4110A16A090A4174DAF80000A17900EB411067
:20357000A16A090C817408214B48007808F040FB2168A2793868CB686A4302449360CA6830
:203590000A61CA688A6000F10C02A17969430C30525C02F0EF024254A0793968684301F115
:2035B0000C020C31125C02F07F020A54A0793968684301F10C020C31125C02F0F00242F04B
:2035D00002020A54A179386869430844417B01F0F00141F001014173B688DBF830C0DAF86F
:2035F0000010A37940F6C4104643DCF8000001F114025B01361AA6F51676D650A27901EB20
:203610004210C17C01F0F00141F00401C174A17938684D4321684019486099F801008106D1
:2036300014D504F59771488F1B2804BF888F1B2808D1C88FB0F5A47F04BFB4F86E11B1F5CD
:20365000A47F03D0142120460CF052FA134908200870A17988F80210BDE8F14F00F020B82C
:20367000184F0020684E0020AC4B0020741D0020844C0020E81D0020504F00205B080100DD
:2036900077110100EC1D00205C4D00208C4E0020786C0100734F00206E4F00206F4F002023
:2036B0002DE9FE4FDFF87483D8F804701FB9BDE8F74F12F0F9BA3878DFF86493DFF864A3B1
:2036D000DFF8644301281CBF0228042841F64C5B05D0402818BF802800F0C28097E111F0BD
:2036F00023FE0028FAD0387805F0B6FF05466E6816B9002011F08EF9DFF8301348780028B3
:2037100000F0868002F05AFD11F05AFC01900168009128464F6809F017FC02284CD0297860
:20373000022902D0042921D071E10521217018B912F0B6FA5844B0603069C17E01F0EF016D
:20375000C1763069C17E41F08001C1763069C17E01F0F00141F00201C1760221B868824433
:203770003069C0F820A088F8021077E00621217018B912F095FA5844B060AD480168887C17
:203790000FF034FB3069C17E01F0EF01C1763069C17E41F08001C1763069C17E01F0F00180
:2037B00041F00201C1760421B86882443069C0F820A088F8021051E000980178802913D111
:2037D00008229C4822700178012903D0974A5078022803DB78690121C17213E0D9F82810E0
:2037F0007A690878D0720DE09249072020700A787869012A02D10123C37203E0D9F82810EF
:203810004A78C2720198894A817900989170FAE0002D14D02878AF420DD102281ED0042805
:2038300005D183480168887C0FF0E0FA16E0002011F0F0F812E0022802D0042804D0E6E0DE
:2038500005202070022007E00620207078480168887C0FF0CBFA042088F802002846D2E02D
:2038700072494878002800F0968002F0A7FC11F0A7FB0190016800914D686C49887811F061
:203890009FFB029011F056FD10F0070F53D098F8020005F0E1FE06460099776809F054FBED
:2038B000022848D03178022902D004291AD03FE00521217018B912F0F3F95844B86038690F
:2038D000C17E01F0EF01C1763869C17E41F08001C1763869C17E01F0F00141F00201C1768B
:2038F00002211DE00621217018B912F0D9F95844B8604F480168887C0FF078FA3869C17E32
:2039100001F0EF01C1763869C17E41F08001C1763869C17E01F0F00141F00201C176042164
:20393000A86882443869C0F820A088F8021069E0002011F06FF802980199884229D0009896
:203950000178802913D108223A4822700178012903D0364A5078022803DB68690121C17227
:2039700013E0D9F828106A690878D0720DE03149072020700A786869012A02D10123C372DE
:2039900003E0D9F828104A78C2720198274A81799170009837E011F0CDFC10F0070F3BD096
:2039B00098F8020005F058FE064646F2A81530787768022802D004280FD02DE00520207089
:2039D00012F06EF92918B86812F066F918B912F067F95844B860022012E00620207012F0F9
:2039F0005FF92918B86812F057F918B912F058F95844B8600E480168887C0FF0F7F90420FE
:203A100088F802003046BDE8FE4F08F069BABDE8FE4F002010F0FEBFBDE8F78FB81D0020A2
:203A3000786C0100F0D8FFFF6F4F0020684E0020184F0020734F00202DE9F043CD48CE4D35
:203A500001781E24002985B007D0052908D0062900F09E80072918BF082900F087817FE193
:203A7000C64E3168086800F1080999F8000010F00F0F1CBF00F00F01062908D000F00F0285
:203A9000022A1CBF00F00F00012840F06F81062209F10201684611F05BF999F80000B84F07
:203AB000C0F3801800F00F0001283DD1062209F1080102A811F04CF999F800004FEAD019A7
:203AD00002A9484612F0E4F8D0B13868807C022818BF03285BD105F10D0102A812F0D4F8CE
:203AF000002854D039680120C8720622707940F00400707102A938680C3011F029F913E0AB
:203B10002978894510D10622691C02A810F0BCFD50B12878717960F382017171062238682A
:203B3000691C0C3011F014F96946404612F0B0F800282CD070696946001F0FF08FF900284D
:203B500025D1294668460FF008FF0146FF291ED03868807C61436C18002818BF02280BD017
:203B7000012818BF032812D16A5C7069611C001F12F086F810280AD070696A46E11D001FB4
:203B90000CF0E7FA06226946E01D11F0E1F8EDE07C4E3068016801F1080999F8000010F05E
:203BB0000F0F1CBF00F00F00012878D1062209F10201684611F0CCF899F80000DFF8C88142
:203BD000C0F3801700F00F00012848D1062209F1080102A811F0BCF899F800004FEAD0190D
:203BF00002A9484612F054F820B3D8F80000C07A022818BF032852D105F10D0012F03CF8C9
:203C100000284CD105F10D0102A812F03DF8002831D0D8F80000062202A90C3011F098F8D1
:203C3000707940F004007071062202A9E81D11F08FF814E02878814511D10622691C02A883
:203C500010F022FD58B12878717960F3820171710622D8F80000691C0C3011F079F8694610
:203C7000384612F015F8002848D0294668460FF074FE0746FF2F6ED0D8F80010887A674394
:203C9000EC1948BB887C11F09BF9804698F82E01022811BF0328E95D00F0010081425AD1A4
:203CB00008F5947506222946601C10F0EDFC30B906222946354810F0E7FC00284BD00120AE
:203CD00088F82E010622707940F0080070716946284611F03DF80DE03069EA5D611C001F3F
:203CF00011F0CEFF102836D030696A46E11D001F0CF02FFA06226946E01D2AE0D8F800105F
:203D1000887A40BB887C11F05BF9804698F82E01022818BF03281ED16A46394628460CF004
:203D3000B9F8FF2817D044432C4404F10D0011F0A3FF10B9607F01280DD188F82E71062222
:203D5000707900F0F70040EAC7007071694608F5947010F0FDFF31680A680020107105E074
:203D7000002010F057FE862011F082FF05B0BDE8F08300BF6F4F002048130020D04B002076
:203D9000F01D0020AC4B0020184F0020D46C01002DE9FF47C94C0F460646F80B80F064819D
:203DB000B80880F05181E07ADFF81C93B90F80F0CA80607A002840F0AA803809C0F0A98019
:203DD000A07A20B10020A07205200FF035FA00254FF00108BA49657004F174002A4684F8C9
:203DF000078011F099FB207901281AD16079C0B9DFF8D0A2DAF8000000284DD04846006842
:203E1000006B804761695346401A000BA0611968E2698018B0EBC11F98BFE0613CD9E561C5
:203E300001E084F80480DFF8A492A9F115000068000A31D340F60900A08694F8410000F03D
:203E5000F00040F0010084F84100E58694F8400000F0F00084F84000A56311F057FB4B46B5
:203E700003F6FF7211686FF0020C21F00201116004F13401C3F8FBCF954AC3F8EB1F116891
:203E90008908FCD3C3F8FBCFD3F8FF1F41F00201C3F8FF1F11F0E8FE8E4A10688E4920F019
:203EB0000200656140F400701060032341F8043C41F230038B604046086050238B60086072
:203ED0004FF4CA638B60086041F80C0C022015600FF0B2F9112007F0EBFE307C10B90E20C9
:203EF00007F0E6FEE5712572A07818B906F1380011F020FB794811F0DBF979490878F8B135
:203F10000D7004F1D000042111F01CFB18E0380914D2B80BC0F0C98004F1240011F006FB1C
:203F3000061C08D0706830B17568F068B6F91C1000222023A84727F40057B6E00020607260
:203F500027F00807B1E020B104200FF075F90020E072B168088840F602054FF000088542D2
:203F70000AD0B0F5C15F07D00A8B4FF61F60104040F43470088306E00A8A4FF61F60104021
:203F900040F4347008826069E0B1D9F85400016804208847B0B1D9F80000006B80476169A6
:203FB000814226BF401A401E401A000BF060708AF168401840F6C411F06081422CBFB0F583
:203FD000FA7FF16094F8410010F00F0F0BD1708CED1D854207D1B56930466FF4807142462B
:203FF0004FF00073A8473F4904F17400424611F093FA607958B10220ADF8000068460FF0B3
:20401000A5FD84F80580BDF80800A4F8700001206070E078401CE07004F1200084F8068018
:2040300011F084FA002808BF47F0020702D0192011F070FA7569414630464FF080630A46FF
:20405000A84727F0005730E004F12C05284611F06DFA06F05BFB284611F068FA27F00207AA
:2040700008B147F0020720E011F050FA014604F1280011F05BFA0646B569A80810D27EB107
:2040900025EA0500B061084611F0EEFD706850B12A46F068B6F91C1075680023A84702E064
:2040B000084611F0E1FD27F4804727B104F1D000394611F047FA0090BDE8FF87B0080020F0
:2040D00031430100DC1D00208C0100101500044010100440000004600C4104400DA900003D
:2040F000D81D0020199D00002DE9F04F09AFADF13C0D08900A92388809911E46ADF8180042
:20411000101C08BF002000F08481002700F101094FF0FF3A4FF0010BB8466CE1252940F0D9
:2041300063811078521C0A922D2818BFADF8068005D15846551CADF8060010780A95302893
:204150001CBF4246434605D10A9908785A465B46491C0A912A28CDF80080554616D1306878
:2041700004930A99CDF808A0C01C4B1C20F00300001D306050F8044C0A93002C0878009410
:2041900018D5ADF806B06442009413E044460AE0610001EBC40140180A99A0F130040878D4
:2041B0000094491C0A91302801DB3A28F0DBCDF808A004932E282BD10A9908782A2801F13D
:2041D00001010A9111D13068CDF80880C01C20F00300001D306050F8045C002D48BF454668
:2041F00008782B46491C0A9111E0454643460AE0690001EBC50140180A99A0F13005087873
:204210002B46491C0A91302801DB3A28F0DB02930AB1224604926C2804D04C2818BFADF816
:20423000048005D10A990878ADF804B0491C0A910BA9CDF80C800FAB07916428059300F02D
:204250008B80692800F08880BDF818C0752872D078286ED06F286AD0702850D063283DD04F
:2042700073281ED009980A990128A1F101010A9115D96B490C68B5F1FF3F03D0A84288BF0B
:204290006D1C00D8099D029508A80AA932466B46A047C7190A99039801F1010974E0404609
:2042B0002AE030680A99C01C20F00300001D306050F8040CBCF1000F01F10109014608B9F5
:2042D00055A00146079110F0ADFE0390B5F1FF3F5BD0A842C4BF281C039056E03068C01CBF
:2042F00020F00300001D306010F8040C5D468DF82C000A990395584601F1010945E0082060
:2043100035680490E81C20F00300001D306050F8041C082210230FA80AF0F2FF401E07903C
:20433000402101700A99079801F1010929E0082302E0102300E00A230A99306801F10109D0
:20435000C01C20F00300001D306050F8041CAA42BCBF2A1C049210E00A99306801F10109DF
:20437000C01C20F00300001D306050F8041CAA42BCBF2A1C04926FF009030FA80AF0C0FF0B
:204390000790059D281A0390009C241ABDF8065000945DB906E008A8202109AA0FF0CCFD1E
:2043B000009C7F1C641E0094F5D503980546401E039075B9BDF80600E8B10098401E0090F7
:2043D00019D408A8202109AA0FF0B6FD00987F1CF4E70798411C0791017809AA08A80FF00D
:2043F000ABFD03987F1CE1E708A809AA0FF0A4FD7F1C09F101094A460A9812F8011C401CB0
:2044100000290A907FF48AAE089808B14146017038460FB0BDE8F08F286E756C6C2900C0A0
:20443000706C0100BB482DE9F84F0025BA4CB849056094F8E200002800F06581012800F019
:204450002F81B64E02283CD0032840F05C8151F8250CD4F8B8100029A0F5C060C4F8D400AE
:20447000B8BF49420028B8BF4042814226DA4FF08057D7F8A4014568B4F8BC0030214FF413
:204490007F42082300903046A847D7F8A4014568B4F8C00004214FF4F80212230090304601
:2044B000A847D7F8A401B4F8D070456820214FF440620A2330460097A847012584F8D850D7
:2044D0001CE151F8258C10F005FF2F4600B901273946934F38680028FCD0B146012609F16E
:2044F0000409D9F82CA03E6009B110F0F9FECAF30720C4F8BC0010F0EDFEAA4600B9B246CB
:204510003B68002BFCD0D9F800B0BAF1000F3E6001D010F0E5FECBF38440C4F8C00010F066
:20453000D9FEAA4600B9B2463B68002BFCD0D9F81C90BAF1000F3E6001D010F0D1FEC9F328
:204550008120C4F8D000B8F5C061C4F8B81000F09C8094F8D80068B9C4F8D410D4F8C0000F
:20457000C4F8C800D4F8BC70C4F8C470D4F8D030C4F8CC30D4F8D410D4F8BC30002954BF97
:2045900002206FF0010004F1C802176801EB41014018411000EB917107EBA1001060D4F8B8
:2045B000C810C4F8C43000291CDD1E293CDDD4F8CC0030B93429B4BF15391E21C4F8C8106F
:2045D00025E02A29BABFD4F8C8000B381E20C4F8C800D4F8C4003F28B4BF401C3F20C4F880
:2045F000C4001FE0D4F8CC00032812D011F10B0FC6BFD4F8C8000B30301CC4F8C800D4F837
:20461000C4000028C4BF401E051CC4F8C450032508E011F1150FC6BFD4F8C8001530301CEC
:20463000C4F8C800C4F8CC504FF08057D7F8A401B4F8C43030214FF47F42456837480093D0
:204650000823A847D7F8A40104214FF400321123456832480096A847B4F8C860D7F8A401FA
:2046700004214FF4F802122345682C480096A847D7F8A40120214FF440620A23B4F8CC604E
:20469000456826480096A84701E084F8D85040F2FF50404502D8801C40452FD2082030E0AB
:2046B00051F8251C1F4F4BF2F5204843060A3868C0F3814001280CD11B48006800688047F1
:2046D0000EF008F810F012FE3111C010484306EBE03694F8E50030B91448006820F07F402B
:2046F0008019460801E084F8E5501148310C0660012741600F4D8760287808B90B2000E0BD
:20471000052084F8E40003F0ADFCBDE8F88FC0462D400C402C500C40680C002000A00C4035
:2047300000800C40B43F0050EC010010102009403C600C40BE6B0100F0B5A34CA34D2778AF
:20475000A34AA448A44BA5490D2F83B041F2064600F23081DFE817F036012E012E012E0170
:204770002E010E004E002E019600DA00DA000B010B0112019A494C881C80022C10602FD901
:2047900040F20440241A29D0641E29D040F2FB30241A1CD00A3C012C19D940F6F630241A5B
:2047B0001ED0641E1AD0641E012C19D9241F15D0641E15D0641E11D04FF47E70241A0FD0AE
:2047D000641E0BD0E41E09D0641E012C0DD8887B4E8025280CBF2720401E8873814845E086
:2047F000002010F017F9852087E0002010F012F9842082E07C494C881C80022C106037D959
:2048100040F20440241A30D0641E31D040F2FB30241A23D00A3C012C20D940F6F630241ABD
:2048300026D0641E21D0641E012C21D9A41E13D0A41E1AD0641E1BD0641E16D0A41E0BD093
:2048500040F2F630241A13D0641E0ED0E41E0CD0641E012C02D910E0644807E0887B4E80B3
:2048700025280CBF2720401E88736148106046E0002010F0CFF885203FE0002010F0CAF8A4
:2048900084203AE05B498978FF295ED0106040F204461C20414358480068841C645A1C80A1
:2048B000A41B012C554B50D94FF47F76A41B17D00A3C012C17D940F6F636A41B17D0A41E28
:2048D000012C84BFE41E012C11D9A41E012C79D940F2FD36A41B0AD0641E012C03D908E08D
:2048F00041F2024401E04FF4A054801C4452136005E0002010F08EF8852011F0B9F92878EF
:2049100003B0BDE8F040012107F072B94888188040F20442801A55D040F6FC72801A15D0F9
:2049300008384FD04FF47F72801A22D1344C354A2568354800680023CDE9002355F8086F16
:20495000324B0222B04732490880F7BD092F10D130490A68508960B12F4908780CF07EF8A0
:204970000021002011F07CF900202070F7BD48881880002010F04EF885201FE04888188032
:2049900002280DD940F20442801A1BD040F6FC72801A05D0083815D04FF47F72801AE8D13B
:2049B000887B801CC0B2B528A8BF6620887300204880F7BD002010F02DF88420BDE8FE40A9
:2049D00011F056B9F7BD00BF6F4F00206E4F0020204F0020DB540100504F0020581D002076
:2049F0009C4C002011E100006C4C0020F932000029E60000684E0020E81D002021850000FA
:204A1000F04E002002000080EC4E00204D330100424F0020F41D0020714F00202DE9F84FAC
:204A3000A54D804628680E464179012991461F4604D004200EF09CFC012801D10C2039E1DB
:204A50009E480078092818BF0A2804D00B281CBF0C280D2801D121202CE143F6FD70A8F104
:204A7000040181423CBF311F814280F0D580B045C0F0D2805FEA090003D0B9F1010F6AD17A
:204A900002E00A98002866D0380018BF012F03D0022F18BF032F5ED10B980B9900910028A9
:204AB00018BF012903D0022918BF032953D11199109881424FD30C9940F67B42891F914276
:204AD0003EBF0D98801F904245D20D990C98814241D30E99B1F5FA7F3DDA0F980A3840F67F
:204AF0007742904237D20D9A0F98491C52005143B1EBC00F2FD20EF025F9012808BF3A20A7
:204B10001BD05FEA090004BF0A98002823D002F02DFA040008BF09200FD02968A079887436
:204B30003A462868A0F80680068180F80A9040200A9906F0FDFF08B10B20BBE004F16101D3
:204B500020460DF089FB04F12C06B07B012803DC20460EF0D9FB5FE029680B98DFF86081A1
:204B7000DFF860B1DFF860A1C8720B9800281CBF0099012907D1C107286854BF5946414659
:204B900006220C302EE00AF10D0011F075F878B10B98C10754BF5946414610F09CF9002893
:204BB0003AD00B98C10754BF59464146062208E00AF107010AF10D0011F04EF806220AF1B2
:204BD000070128680C3010F0C3F80B990B9801F001018AF80010C10754BF59464146062241
:204BF0000AF1010010F0B4F8B9F1000F28D184F82E7104F594780A990622404610F0A8F83A
:204C1000022F18BF032F1BD10A9A07F0010150460BF040F9FF2801D112204BE01E214843D7
:204C30000AEB000707F10D0011F026F8002804BF787F002804D106222449404610F088F8CA
:204C500011F006F8A0620FF011FB60620D98F0800F9870810E9830812868C17C31700020E4
:204C70000221B170B08010F0EFFF0C2290FBF2F20C2101FB1200401DF073042009F00AFD06
:204C90002968086001204871A07901F09DFE0B48017871B90E4A107810B10E480FF0C6F9E1
:204CB0002868807C0EF0A2F8044906200870FEF7F7FC0020BDE8F28F184F00206F4F002042
:204CD000344E00202C4E002048130020D46C0100784E0020CC4700202DE9FE4F0F46994C16
:204CF0000168E16241688068E0609748A16080479648E16A0160A168DFF870B24160E1680A
:204D1000DFF8648281609249002FA246C16069D03D68E8788DF8080028798DF8090002A82E
:204D300010F08EFFA86808B18A490160E86808B189490160894C2878207068786070A878C8
:204D5000BE68A0703178E1707368636072696261B168A160F168E160316921612E697B688D
:204D7000A6621868A0616869E062A8692063287F84F834002A6AA263786886681EB900203E
:204D90000FF048FE00E026627868C06818B900200FF040FE00E060627868406818B9002005
:204DB0000FF038FE00E0E0612869A062F86881680E6806B96B4E6A494FF001094E60C668EB
:204DD00081F801902EB900200FF024FEF868454601E045462E6000685C46FE68A061706863
:204DF000E06106E000200FF015FE4FF001095C46454628685E494668621C04F114035020F5
:204E1000B04710B1286880688047DAF808008047594F0026834669467E7056483E70042244
:204E3000206130460EF0BCFB0098B0F5801F0CD020B90EF0A9FF04F037FD08E00DF0DEF89C
:204E500010F0FAF80420788001E00EF09DFF4B4FB0462868C7F808808069A66080477860C4
:204E70004748468080F80090142010F089F9FF211422A06210F07AFBE01CFF21022210F002
:204E900075FB142010F07CF93E49086008681422314610F06BFB3046FBF78CFD48460EF0FA
:204EB000B5FA39480188FF2906D1022101807822001D314610F05AFB032010F0BDFE042001
:204ED00010F0B6FE052010F0AFFE062010F0A8FE07200BF0D5FB2D4E0820307006F1400004
:204EF00010F09AFE0BF0C2FE363605200A2132460FF085FC38B14046C0F10901401C06F817
:204F1000011B0A28F8DB2F68214909200DF10A0201AB7D68087010204146A847A06AE26928
:204F30000A270A309DF80A1000F8011BDAF80C107F1EF7D1921E5846E261884702F0ACFBE7
:204F5000BDE8FE8F7C0D002041490010F8440020785D01000D3C0100294C010000100020AA
:204F7000541200200FF300001C1300200411002079430100314D010018130020AC1D0020A5
:204F900014130020041E0020A80E0020E80A00201A1E0020FEB51446A64DA84A03460026D7
:204FB000A3F58063192B1BD8DFE813F03A0133012B0123011A0115010D010701FC00F00073
:204FD000E800E000CE00C2001A00B80096008000790064005B00510047003A003000250022
:204FF000282880F29980022940F09680218810F00FFE06461CE1012940F01981217828465B
:205010004175012101750FF0EFFF11E1012940F00E81002C00F00B8128461330024614E0D5
:20503000102940F00481002C00F0018128465C30102221460FF08CFEFAE0012940F0F7800D
:20505000002C00F0F4802A46921D1046B9E0262940F0ED80002C00F0EA80284626226C30DE
:20507000E7E7012940F0E380002C00F0E0802846401DA6E0602900D144B9012940F0D780C0
:20509000002C00F0D48028460D309AE005F19200214660220FF05CFE01206873C8E00129D3
:2050B00040F0C580207810F0AFFDC1E0012940F0BE802178022900F3BA80284600F10C0290
:2050D00011702178022918BF301C02D11021C172012010F095FDABE0072940F0A880611CDE
:2050F000684606220FF0C0FC20786946324607F0B5FB04460A2C0FDA10F07EFD38B920466E
:2051100004F03EFB0FF00AF80BF0B0FD90E0284601212C3001558BE0022689E0012940F0A1
:2051300086802178042980F2828028460E305EE001297CD12A462178D07B0028D17377D1B6
:205150002078012874D1DFE72846027B01296ED1022A04D02178072901DB102904DD022A34
:2051700065D12178102962D1C17261E001295ED121780A295BDA2846093038E0012956D106
:205190002178022953DA2846083030E000294ED110F032FD10B90FF0BFFEB3E72846012132
:2051B000103024E0042942D12168234888423ED32B4603F11C0001603AE0012937D12846F0
:2051D0000A30217813E0012931D1217802292EDA2846C01D0BE0102929D128464C3027E7A0
:2051F000012924D12178022921DA2846001D01701EE001291BD12178042918DC2846C01CAD
:20521000F5E7012913D12178022910DA2846801CEDE702290BD1218810461530018007E055
:20523000012904D121780229D8BF101CDFDD18263046FEBDE80A00203F420F00E90A0020F8
:205250002DE9F04F0C46E00789B00BD50FF078FF28B1002181608448006800B1804784F026
:205270000100FDE02007814D40F1868080480168887C0FF0A5FE064606F5947096F82EA195
:2052900007904FF000087A4801688A7CC146FF2A04BF00200FF0BEFB079A514628460AF084
:2052B000F9FD07461E207843009005EB000B0799504610F0EDFCA8B1FF2F2CD00098285C59
:2052D00040F0020A0BF10100079006220AF0010086F82E0106F5947007990FF039FD0BF14E
:2052F000070818E0079950460FF0F5FD002818BFFF2F10D00BF10D0010F0BEFC48B90BF1A3
:205310000D0010F0B9FC002804BF9BF81D00012801D14AF0020A56490868C07A022818BF95
:20533000032806D105F10D0010F0A6FC08B905F10709002006905346F08E00090590002262
:20535000B18E0491708E0799009140080390CDF80880CDF804900020B17910F049FCD6F85C
:205370009C0144498842B0790CBF0021012108F03FFE84F0080073E0E00610D5002006906D
:20539000002100220023029005910492039301910092022010F02CFC84F0100060E0E0042D
:2053B00013D5E91D05F10D0010F056FC32484268324800784FF480510CF086FE10B18E2081
:2053D00010F012FC84F480504AE0A00505D50FF081FF2B4901200860FEE7610504D506F028
:2053F000E2FA84F480603BE0600405D5812010F0FBFB84F4804033E0A00430D5214D286887
:2054100010B100200FF006FB4FF0FF3028600AF063FF1D4D296851F8202F684690471B48CE
:20543000C16A026B2D68009101920021029100F134014A6809781368806A03938DF810105E
:20545000ADF812006B462E68114A12491248B0471249086003F094FA84F4005000E000202B
:2054700009B0BDE8F08F00BF204F002048130020184F00205B080100784E00206E4F0020C8
:20549000FC002043044F0020F04E002000100020181D0020B411002088490020EC4E002017
:2054B00010B50B7884074CBF43F0020303F0FD0304064CBF43F0800303F07F0304074CBF7D
:2054D00043F0080303F0F70384064CBF43F0200303F0DF0310F0AA0F0B7004D0107840F011
:2054F0000C00107010BD18B9117801F0F301117010BDF8B50F4600263878022814461D46F7
:2055100069D1786801784278069801EB022189B2002818BFB1F5285F01D00B20F2BD4FF42C
:205530002850091A0CD0491E20D0491E4DD0491E24D0491E2AD0A23947D0233941D04AE0C4
:20555000F86810F015F8069B079980B2C21A8A42ACBF0846C01A80B2C118162904DA288050
:205570000246F868C1180DE00D2636E0F8680088022129802070000A60702EE0062028806A
:205590000622F96820460FF0E3FB26E0F868B0B108212980018821700188090A6170418846
:2055B000A1704188090AE170818821718188090A6171C188A171C088000AE0710DE0298080
:2055D0000BE04B480178CA0705D401202880F8680178217001E02E8001263046F2BD2DE9F6
:2055F000F8460E46814630780024022817469A467AD17068017842783D4D01EB022189B2E5
:205610004FF42850091A0AD0491E32D0491E57D0491E41D0A33965D0233960D064E0F0681A
:205630000FF0A6FF089980B2884206D308460AEB0001162903DB0D2457E0072455E0F368BC
:205650005246394618440FF083FB08985044ADF8200000210898F368C0F1160218440FF011
:2056700085FF686800281CBF0268002A3DD0002123E0089888BBBAF1020FDCD13978787811
:20569000F26801EB00211180686800281CBF0268002A2AD0012110E00898F0B9BAF1060F86
:2056B000C9D1F068062239460FF052FB686800281CBF0268002A18D003214846904714E029
:2056D000089850B9BAF1010FB5D13878002813BF0128F1680870802407E00B2405E02878ED
:2056F000C10701D4032400E001242046BDE8F2868C1200202DE9F04F8246DAF800600C46EF
:205710005FEA0208ADF11C0D14BF00214FF0FF3106F1480083460FF0C9FC002818BF0B2006
:2057300040F00681002565708448F460B8F1010F057004D065700220F4600DF079FF20782E
:20575000012840F2AB80801E012868D9801E012833D9801E012800F2DF800FF0D7FE069056
:205770004FF0805000F5EE77D0F8DC01A378466A009321782846062908BF012001900120DD
:205790000290A068228AE1686368B0478146069810F06AFAB9F1000F40F0C080B8F1000FFE
:2057B00002D00FF0A5FA02E050460EF067FC002800F0A4803868806A2AE00FF0A7FE069086
:2057D0004FF0805000F5EE77D0F8DC01012306680093A168A27860682478AC46042C08BF16
:2057F0009C466346B0478146069810F03DFAB9F1000F40F09380B8F1000F02D00FF078FA84
:2058100002E050460EF03AFC002877D03868406880474949C1F8B0510D6081467EE00FF071
:2058300075FE06904FF0805000F5EE76D0F8DC01E38A87690093E0680190208B0290A07824
:205850000390207D04900121059122782846022A08BF081CE1786268A368B847814606980B
:2058700010F002FAB9F1000F58D1B8F1000F02D00FF03EFA02E050460EF000FC00283DD0D2
:205890003068006A80475FEA000947D13068C569A168E28A2369E078A847BEE70FF036FEDF
:2058B00006904FF0805000F5EE76D0F8DC01E38AC7680093E0680190208B0290A078039045
:2058D000207D2946049001200590257805B9014608466268A368E178B8478146069810F0E0
:2058F000C3F9B9F1000F19D1B8F1000F02D00FF0FFF902E050460EF0C1FB08B9142017E09A
:205910003068406980475FEA000907D1306802692169E078904780E74FF0FF39B8F1010FF2
:2059300002D002200DF088FC58460FF003FE484607B0BDE8F08FC04650450240191E0020A7
:205950002DE9FE4F05467E48002400680094C0090ED37C48007858B97C497B4851F8112C9E
:20597000104040F0817041F8110C20200CF08AFB012D40F0E080DFF80092D9F8DC00012892
:2059900040F0D6800220C9F8DC000EF0CDFD01200CF078FB5FEA000805D00120C9F8DC0076
:2059B0000EF0D2FDC9E00FF0C9FDA34602906848684DC0F800B0A86A0168012088470128C0
:2059D00004D1584609F026FF012000906248634FC0F800B0386811200FF09AFC00B1012475
:2059F00010200FF095FC08B144F002040F200FF08FFC08B144F004040B200FF089FC20B1B6
:205A10002868574E016B308888470A200FF080FC20B12868534E016B3088884752480126F3
:205A300006602868816944F0200088474F4806600FF068FC00F001010191400814D2286AAF
:205A500081684B4888478246BAF1040FF7D0BAF1010F04D1286A42684548032190474549BC
:205A7000086820F003000860584600F097F92B683868986B8047019801280CD0BAF1010FB7
:205A900004D1286A42683A48314690473949086840F003000860304806602868416920460A
:205AB00088470B200FF034FC20B128682C4BC16A188888470A200FF02BFC20B12868294B16
:205AD000C16A18888847284806600322C9F8DC20264BC3F800B02868416B204688470128EE
:205AF000F9D1386804200CF0CDFA0446184806603868134800688009FBD30098012802D1E7
:205B1000304609F087FE0FF0EBFB08200CF0BAFA07460298C9F8DC6010F062F80AF020FA72
:205B30000EF012FD57EA040018BF4FF0FF3804E06FF0040801E06FF001084046BDE8FE8F66
:205B500014100940500D0020FFFFFCFC150009400C400940B8010010000222432C2009409D
:205B7000B6670100B267010028200860800104430040034024220840680C00202DE9F04F6B
:205B900094460E1C04461F46ADF1440D4DD07448357801684FF0010B0BFA05F0014244D0C8
:205BB000BCF1000F666040D0BCF80000B0F5C15F2FD1DCF81400DCF818606A4BDCF81C50A1
:205BD000DFF8A4910E904FF0030E0DF134080F9618681095C0F3036A58F8046FB6B100214C
:205BF000331F05200A4653F8045FA94506D0401E01F1040102F10102F5D107E0052A05DA56
:205C1000705820F4702040EA0A407050BEF1010EE2D1C4F808C00FF079FC82465E48801C61
:205C3000007820B1504610F01FF8002094E003F045FB4E49086840F0020008600AA80FF045
:205C50006FFA4B4E4FF005080AAA4A49CDF8308006F1D0000CF0F2FD0AA80FF049FA00255F
:205C70004FF0FF0919210AAB8DF83050424ACDF82C9006F174000CF031FB0AA80FF050FA3E
:205C90000AAA3E49CDF8308006F582700CF0D6FD0AA80FF02DFA8DF830B0394ACDF82C9047
:205CB00006F190001A210AAB0CF018FB35492A4606F1AC0013460BF079FE33480FF0F8FA86
:205CD000324A2B46042106F148000EF04BF94FF6FF70A6F8700086F805B086F87350357145
:205CF000B571F571357275727561B572B378F572581CB07050460FF0B7FF1FB903AF384604
:205D10000FF040F9386820607868E060387C84F811B02074788A60821D4EA6616661F868F9
:205D300000B1A061B86800B160612946782204F1200008F064FE04F1380029460DF032FFCD
:205D500068460FF0A7FB1349029404F170002A466B460BF02BFE204611B0BDE8F08FC046F7
:205D7000D4210840541300500200F84400200940B0080020A94D01003143010011E900003A
:205D900029100100815101000DA90000151701001BCE0000E1540100B00800202DE9F84FAF
:205DB000DFF8F4B10746ABF13500DFF8E0910068800880F0D98071480068006880477A4925
:205DD0000831D1F8008000254FEA28725FEA985102F101020AD2C0F13E0110F10A0F4FEAF2
:205DF000E101D8BF08218A42B8BF0A1C644BD3F87C11C1F304611629A8BF20391B68C3F330
:205E10000443162BA8BF203B9A465118162905DA11F10A0FB8BF6FF0090100E01521594B0C
:205E3000594E01F01F0242F4F8521A80326812F0030F18BF0125D20828BF45F002050FB117
:205E500045F004054A4692F90730C31A052B04DA9379AB4208BF918866D0DFF834E10F2885
:205E7000A0F10F0C25DB0CEB0013A3F1F00C4FEA2C26072E88BF07263446062C88BF06247B
:205E90005EF82470042303EB84037446E358DB1B03F0FF04EF0824BFC3F307273C44AF0896
:205EB00024BFC3F307473C446F0828BF04EB136401E0002426465EF826E0EF080EF0FF03E3
:205ED00024BFCEF307273B44AF0824BFCEF307473B446F0828BF03EB1E63A4B2ACEB062653
:205EF000AAEB01017443002904F1800403EB1423D8BF0121342408F0FF074C43A1B27943D0
:205F1000B1FBF3F14FF6FF738B4238BF191C802889B2918005DA10F1800FB8BF6FF07F0079
:205F300000E07F20D07195711A4800681F2910604FF0000008D340F2FF128A4206D24908B7
:205F5000401C8A42FBD301E01F219180134F0F39090940EAC10047EA0001CBF8FB1F00262D
:205F7000CBF8FF6FBDE8F88F0D490E4F4A4608200F60921D1070BDE8F88FC046EC0100107C
:205F90003C1100506E62084024220840E01D00209C130050082009403500094000E7A48098
:205FB00030100940FDFDA400AC3F00502DE9F0410C4684B00746207A0026C10690461D4695
:205FD0000BD540460FF008FE030000F0F0800A22214638469847060050D1207802281AD11F
:205FF00060680178427801EB022189B24FF42050091A012910D9891E41D0491E16D0FD3928
:2060100005D0491E00F08B80491E74D0491E7BD0491E00F0A180B8E00B98002831D1E068B7
:206030000A9A017811800278416891E00B98002827D10A9801210180E0680178297000218B
:206050006089401C80B20FF0C3FD0A99098868B102780A9B921C5118198041896970418971
:20607000090AA97002784168E81C72E00A98091D018004220021681C0FF078FA98E00B98CB
:2060900000286BD1E06807880A98042101802F70380A68700DF1020138460FF099FD04009C
:2060B0001FD0E768BDF802204FF6FF786B4641460FF016FE40B9237862683F4802210FF0AD
:2060D00083FD08B9ADF80080387802280BD179680222281D0EF03CFE0A980188891C0180C1
:2060F00001E0ADF80070BDF80000A870BDF80000000AE8705CE00B9800282FD1E0680168FE
:2061100038460EF0EDFF03E00B9838BBE06800880A9A022111802870000A687048E0E0687C
:206130000FF026FA0B9B80B29842B8BF07263FDB834208BF002006D00C99C9188142B2BF84
:206150000C98C01A80B20A9908800246E068C11828460EF0FDFD2BE00B9808B10B2627E0E6
:206170000A9AE0680721118002782A70417869704188A9704188090AE97001792971C18850
:206190006971C088000AA87112E040460FF018FD06000CD00D980C990A9B029001912A46B9
:2061B0000B98009021463846B047064600E00E26304604B0BDE8F081106D01002DE9FE4F3F
:2061D0007D4C617811B900200EF024FC0FF068FD8146002709F6C4190026784DDFF8E081B4
:2061F0000EE030460EF0ECFE417939B129688279CA5549467F1C00F0E7F8FFB2761CF6B210
:2062100098F800008642ECDB009761788F4205D000200EF0FFFB82200FF02AFD6078012858
:2062300040F0A380002601E0761CF6B298F80000864280F2948030460EF0C2FE074678796A
:206250000028F1D02868B979027891421CBF00200EF0E0FBB87980E0286810F809000EF032
:20627000AFFE00684268DAF808109068814204BFB84609F1010900F088808BE0296891F868
:2062900000B04FF0010910E0626811F8093002F5B17208FB03F708FB0BFED75B32F80E204C
:2062B000974238BF9B4609F10109C0B28145EBDB4FF6FF7008F00CFF074658460EF080FEFD
:2062D00040F6C4190068416800967808029109FB00FA0026019715E058460EF071FE0168BC
:2062F0000A78802A04BF7B69C3F814A00978402907D1344A8079136803EB40110AF5A06258
:20631000CA61761C0098864253DA2868805D8345F7D0636808FB00F2991803F5B173C98948
:206330009A5A4B08934203D2009B891A8B42E8DA0EF046FE00684768029A0198B9689368E5
:2063500000EBD0704010A1F6C41109FB00300FF0A3FC0028C0D02868805DBDE8FE8F0020FD
:206370000EF058FB82200FF083FC6178286809F05EFD286800780EF023FE0168009ED1F8E8
:2063900004A04FF000084FF00109B14508F10107FFF662AF4046C0B200281EBF3846C1B2CE
:2063B00000294FF4D0787FF469AF286890F800B07EE75846D1E700BF684E0020004F002007
:2063D0007B4F0020EC1D00202DE9F24F054682B02868D0F804B0DBF808000FF05DFC00285F
:2063F00040F0E4802968029809690FF0E5FB05F1820480462078002805F12E0740F6C4193D
:206410006BD0298960880FF0D3FB82462078022806BF05F59A710E8EBE8806FB0AF609FB8F
:2064300006F00090286801690098411802980FF033FC00284BD000982189A8EB000009FBF7
:2064500001F2B0FBF2F302FB130000B15B1C288982449A44A5F80AA05943E088861920789A
:206470008E1901284BD105F1860128460EF09CF860896989688400202877E883E8894118E8
:20649000A9812289B988A0898A4204BF3989884202BF6189FB88994207D00009009063892D
:2064B000A979520800200FF07FFBB88805F59A710886207938702089B8806089F880A08938
:2064D000388128460EF044FA0220207017E0207801281CBF00200EF09DFAB88809FB00F01B
:2064F000B8FBF0F100FB11888EB2B8F1000F28891CBF761CB6B230186881B888464329685B
:20651000314A086909FB0600CBF808000B78802B0DD1C860D2F83080BB88D8F8000009FBE5
:2065300003F31B1ADBF81400A3F5167343610878402833D1AE614FF4C873688A4643B6FBCF
:20655000F3F0401C6861DBF80830181ACBF808006B69D5F8340100EB4300DBF81430586147
:206570001A4823780068022B0CD1AB795B0100F1140454F803803C7809FB048800F11404F7
:2065900044F80380AB79126B00EB4313B88809FB00F41068201AA0F51670D861DBF8082011
:2065B0008A60F87AB87228460CF037F86989A8890FF0FEFAE989814205F59A7138BF012040
:2065D000C885BDE8F78F00BF786C0100EC1D0020F8B57E4F04463868C16E0025002940F055
:2065F000F18010200EF0CCFD39680028C86600F0E7808E6E102221460EF0AAFB396808787C
:20661000002840F08E80CA6ED6F8980012F80CCF00F001030CF0010C634518BF002340089A
:2066300043EA4000C6F89800C0F34003D2F800C0CCF3400C634506BF430803F0010300232A
:2066500020F0020040EA4300C6F89800C0F38003D2F800C0CCF3800C634506BF830803F05F
:206670000103002320F0040040EA8300C6F89800C0F3C003D2F800C0CCF3C00C634506BFD4
:20669000C30803F00103002320F0080040EAC300C6F89800C0F30023D2F800C0CCF3002C5F
:2066B000634506BF030A03F00103002320F4807040EA0320C6F89800C0F34023D2F800C0EF
:2066D000CCF3402C634506BF430A03F00103002320F4007040EA4320C6F89800C0F38023EE
:2066F000D2F800C0CCF3802C634506BF830A03F00103002320F4806040EA8320C6F898006A
:20671000C0F3C0231268C2F3C022934206BFC20A02F00102002220F4006040EAC220C6F807
:2067300098008A6E92F89500030718D5C86E4368C3F3C00098B1C87840F00800C870D6F885
:20675000981023480140C6F898103868C06EC16821F48071C16049084900C16003E092F829
:20677000330001282AD0607800281CBF7178002908D13968CA78130708D5002804BF707840
:20679000002803D03A68052111711CE06068C0F3800040B996F8950010F0040002D1012099
